:02000000EF29E6
:0400060000000800EE
:10000A00083083120313FC002330FD00FD0B0B287C
:06001A00FC0B0B2808009E
:10002000103083120313FD00FD0B1428000008009C
:1000300083120313CF1B1E2886121F2886164F1B00
:100040002328061224280616CF1A282886112928C4
:1000500086154F1A2D2806112E2806154618322807
:10006000061433280610861403208610CF193A2868
:1000700086123B2886164F193F280612402806167E
:10008000CF1844288611452886154F18492806118F
:100090004A28061546184E2806144F2806108614BE
:1000A00003208610461C56280520572810200800DB
:1000B000710DF80DF90D7408F8027508031C750F21
:1000C000F902F00DF10D0F30FC00710DF80DF90D76
:1000D0007408701C7128F8027508031C750FF9026A
:1000E0007628F80775080318750FF907F00DF10D5C
:1000F000FC0B6528701882287408F8077508031827
:08010000750FF907000008006B
:100108008312031346104E08CF0018204614080027
:0E0118008312031348088A004708820008007B
:10012600A528803083120313CA00B828C030CA003D
:10013600B8289430CA00B828D430CA00B82880300D
:10014600CA00B828831203134A08013A03199428EF
:100156004A08023A031999284A08033A03199C28BF
:100166004A08043A03199F28A2284B03F0004A08BC
:10017600F0077008CA007008CF0018204610CD019D
:100186004D084C07840000080319D1284D084C0778
:1001960084000008CE008420CD0AC3284614080037
:1001A600831203137408003A031DE2287508003A07
:1001B600031DE228FF30F0007F30F1003B29831257
:1001C6000313FD01F901F8017108700403190034E5
:1001D60071087506FA00FA1BFD09FB01F51FF828E0
:1001E600F409F509F40A0319F50AF11FFF28F009C5
:1001F600F109F00A0319F10A71087504FA00FA1BED
:10020600142958207B182729FD1F0034F009F1090D
:10021600F00A0319F10AF809F909F80A0319F90AA3
:100226000034F51F2329F11B1F297108F9007008F6
:10023600F800F101F0010729F101F001F00A00349C
:10024600F109F009FB0A0429F80A0319F90A7408E6
:100256007802031D072975087902031D0729F9018C
:10026600F801F00A0319F10AF11F07290000FF340B
:0202760008007E
:1002780083120313061F5829BF0A0319C00AEA305C
:10028800FC00C330FD00FD0B4729FC0B47298030DB
:10029800F000803040067002031D54293F08633C7B
:1002A80003185829BF01C001861F5C29BF01C0017E
:0202B80008003C
:1002BA00013083120313CA000130CB003630CC0060
:1002CA00932002304107C9000A30F4000030F500DB
:1002DA003F08F0004008F100D3207808F0007908C0
:1002EA00F1003030F0074908840070088000410AA4
:1002FA00C9000A30F4000030F5003F08F000400859
:10030A00F100D3203030F0074908840070088000DB
:10031A000130CA000A30CB004108CC009320080003
:10032A008C208A110A128000840AC70A0319C80A93
:08033A00F003031D95290800E2
:1003420083160313861006100611861106128612F2
:1003520083128610061086120612861106110520D7
:100362000520052086150615861403208610052013
:10037200861403208610052086140320861005208B
:100382000611861403208610052086140320861089
:1003920086118616861403208610052086120615FD
:1003A2008614032086100611861403208610052069
:1003B2008614032086100615861403208610052055
:1003C2000611861403208610861606168615061553
:0C03D20086140320861005204614080045
:1003DE0058228312031306138613A1210130CA007B
:1003EE000130CB002030CC0093200630FB001330C0
:1003FE00FC00AD30FD00FD0B022AFC0B022AFB0BAC
:10040E00022A000000000130CF0018200C30CF006F
:10041E0018200130CA000130CB002D30CC009320C3
:10042E000330FB008A30FC005530FD00FD0B1D2A09
:10043E00FC0B1D2AFB0B1D2A000000000130CF0013
:0A044E0018205D213C21282A2B2AEA
:1004B00020308400263083120313F0003130C7004F
:0804C0000230C800952108007C
:1004620049346E3469346334693461346E346434CB
:0A0472006F342E342E342E34003483
:10047C0043346F346E347434613464346F34723496
:02048C0000343A
:10048E0043346F346E347434613464346F34723484
:02049E00003428
:0404A00000340034F0
:0204A4004234E0
:0804A6003A34303430340034E4
:02400E000A2185
:00000001FF
